:040000009FEF00F07E
:1000080000C015F0F2A20DD0010E176E0B0E186E7F
:10001800DC0E196EFF0E166E166A1A6A37D825D8C6
:10002800F292F0A00DD0010E176EC20E186EF70EE8
:10003800196EFF0E166E166A1A6A28D816D8F0902E
:10004800F2A410D017520EE0162A16C01AF01ED8C5
:10005800800E1618006E800E090A005C02E3FF0E7F
:0A006800166E03D815C000F0110059
:0C00720018C0D7FF19C0D6FFF29412008E
:10007E00F28ED09E9380F19CF292F2889382F19A46
:06008E00F090F086120064
:1000940020D03F0E8C6E3CD0060E8C6E39D05B0E99
:1000A4008C6E36D04F0E8C6E33D0660E8C6E30D084
:1000B4006D0E8C6E2DD07D0E8C6E2AD0070E8C6E3C
:1000C40027D07F0E8C6E24D06F0E8C6E21D0836A65
:1000D4001FD01A50000ADDE01A50010ADDE01A5060
:1000E400020ADDE01A50030ADDE01A50040ADDE0DA
:1000F4001A50050ADDE01A50060ADDE01A50070A14
:10010400DDE01A50080ADDE01A50090ADDE0DFD705
:020114001200D7
:0C011600040ED56EABDFF28AD58E12000D
:100122000900F5CFE6FF0006FBE10106F9E1120046
:0C0132000F0EC112956A836AF19E120044
:10013E00FF0E166E176A0B0E186EDC0E196EF2DFBE
:08014E00E3DF96DFFFD7FFD7C6
:020000040030CA
:0E000000000C1F1EFF8381FF0FC00FE00F409A
:00000001FF
