:100000009EEF02F00000000000EF00F00000000092
:0A0010000000000000000000F3D71C
:0A001C00210E0D6E0D2EFED712000E
:100026000F0E0C6E470E0D6E0D2EFED70C2EFCD746
:06003600000000001200B2
:06003C00000000001200AC
:100042000B840BAE2CEF00F0010E036E026A016A04
:0A005200006A0A360232FF0E1200A7
:0E005C00026A016A006A086A036A000E120056
:10006A0033BE02D08A9601D08A8633BC02D08A94E3
:10007A0001D08A8433BA02D08A9201D08A8233B8F4
:10008A0002D08A9001D08A8020B002D08A8801D01A
:10009A008A988A8ACEDF8A9A33B602D08A9601D0A3
:1000AA008A8633B402D08A9401D08A8433B202D0C9
:1000BA008A9201D08A8233B002D08A9001D08A8093
:1000CA0020B002D08A8801D08A988A8AB2DF8A9AB6
:0C00DA0020A002D0A3DF01D09CDF1200A8
:0800E6000AAE029E000E12009A
:1000EE000B820BAE81EF00F00368026801680068B6
:0800FE000A360232FF0E120067
:100106000C6A0E6A0250D8A49CEF00F001C002F0FF
:1001160000C001F0006A0E860250D8A49CEF00F0E1
:1001260001C002F0016A0E960E880250D8B4AEEFF6
:1001360000F00E50035ED8A4D8A0B3EF00F0D8901C
:1001460002BEB8EF00F0003601360236032EA3EFEA
:1001560000F0B3EF00F0010E0C6E7DDFBBEF00F098
:10016600020E0C6E6BDFBBEF00F0040E0C6EB8DFF8
:02017600120075
:0C017800209032C033F075DF20801200B0
:100184000B800BAECEEF00F0026A0AAEFF0E026ED9
:0C019400016E006E0A360232FF0E1200EF
:1001A0000900F5CFE6FF0006FBE10106F9E11200C8
:1001B0000FD0800E2D6E19D0C00E2D6E16D0940E5D
:1001C0002D6E13D0D40E2D6E10D0800E2D6E0DD04E
:1001D0002D50010AEEE02D50020AEEE02D50030AE8
:1001E000EEE02D50040AEEE0F0D72E04006E2D5004
:1001F000002600C02DF000C033F037DF2090316AB8
:1002000031502F24E96E000E3020EA6EEE520BE0E2
:1002100031502F24E96E000E3020EA6EEECF32F01E
:0A022000ABDF312AEDD72080120079
:10022A00939A939893909392939493968A9A8A988E
:10023A008A968A948A928A90F1DEF0DEEFDE8A82CA
:10024A008A808A8AF6DE8A9AE9DE8A8AF2DE8A9ABF
:10025A00E5DE8A8AEEDE8A9AE1DE8A908A8AE9DE19
:10026A008A9ADCDE8A8AE5DE8A9A8A928A868A8A6B
:10027A00E0DE8A9AD3DE8A968A808A8ADADE8A9AC7
:10028A008A908A8AD6DE8A9AC9DE8A8AD2DE8A9ACF
:10029A008A808A8ACEDE8A9AC1DE8A908A8AC9DEF2
:1002AA008A9A8A868A848A828A808A8AC2DE8A9A14
:0602BA00B5DE20801200F9
:1002C0000B6A0C6A0A6A0350D8B4AAEF01F0028ED6
:1002D0008E0E035E03BE72EF01F0D8B472EF01F030
:1002E000AEEF01F0036C080E035CD8A089EF01F0BB
:1002F000036E013602C001F0026A080E035CD8A04A
:1003000089EF01F00136016A0350D8A4D89093EF29
:1003100001F00350D8B493EF01F0D89002320132CB
:10032000032E8DEF01F00BBC01A0A0EF01F0D8A0CF
:10033000A0EF01F0012AD8B4022A02BEBDEF01F0FD
:100340000AAEC2EF01F0021E011E012AD8B4022A31
:10035000C2EF01F0026A016AC2EF01F00B800BAE3E
:10036000C6EF01F0026A0AAEC6EF01F0FF0E026EA0
:10037000016E0A360232C6EF01F0010E0C6E02DF8A
:10038000C8EF01F0000E0C6EC8EF01F0FF0E0C6E0E
:0A0390000150006E0250016E1200D1
:10039A00086A096A100E0C6E0134083609360450D0
:1003AA00085E0550D8A0053C095ED8B007D00450B5
:1003BA0008260550D8B0053C0926D89000360136E3
:0603CA000C2EEAD7120020
:1003D000086A096A000E076203646DEF02F00250BA
:1003E00006180A6E075003267E0ED8A0FEEF01F015
:1003F000035ED8B071EF02F002EF02F0035ED8A006
:1004000075EF02F0028E068E02C00EF001C00BF0F6
:1004100000C00DF000500402F4CF0CF001500502B2
:10042000F4CF00F0F3CF08F00402F3500C26F450A0
:100430000822000E00220D500502F3500C26F45045
:100440000822000E002202500402F3500826F45045
:10045000002202500502016A000E0122F35000261C
:10046000F45001220D500602F3500826F4500022E9
:10047000026A000E012202220B500602F3500026EF
:10048000F4500122000E02220E500602F350012603
:10049000F450022202BE55EF02F008360036013653
:1004A00002360306D8B475EF02F068EF02F0D88088
:1004B000800E08640030000E002201220222D8A023
:1004C00068EF02F0023201320032034A71EF02F0AB
:1004D0000AAE029E000E77EF02F0010EBFDD77EF4D
:1004E00002F0020E04DE77EF02F0040EAADD120025
:1004F000FF0E1C6EFF0E1D6EFF0E1E6EFF0E1F6E9A
:10050000C26A1B1C006E0050C116070EC012C08EBE
:04051000C280120093
:100514000050086E0150006E016A026A036A0B6A99
:100524000C6A960E036E0A6A00C001F008C000F05F
:08053400086A026AE6DD12000C
:10053C0035EC03F0928A9284928671DE010E336E52
:10054C008EDD0C0E336E8BDD010E2D6E010E2E6EBC
:10055C00150E2F6E000E306E25DEC4DF300EC16E10
:10056C00110EC26EC282C2A201D0FDD7C4CF01F05F
:10057C00006AC3500012000E0112C6DF900E046E0A
:10058C003E0E056E7A0E066E7E0E076E1BDF92DE39
:10059C0000C02BF001C02CF0E80E046E030E056EAB
:1005AC002BC000F02CC001F0F2DE300E002600C093
:1005BC0021F0640E046E000E056E2BC000F02CC0F2
:1005CC0001F0E5DE0A0E046E000E056EE0DE08C0DA
:1005DC0000F009C001F0300E0024226E0A0E046EE9
:1005EC00000E056E2BC000F02CC001F0D0DE0A0E00
:1005FC00046E000E056ECBDE08C000F009C001F0E1
:10060C00300E0024236E2E0E246E0A0E046E000E85
:10061C00056E2BC000F02CC001F0B9DE08C000F054
:10062C0009C001F0300E0024256E266A010E2D6ED5
:10063C00060E2E6E210E2F6E000E306EB3DD340EB4
:10064C000C6EF10E0D6E0D2EFED70C2EFCD700008D
:06065C00000086D7FFD765
:10066A0010EE15F0070E006E010E016E620EF66EA8
:0E067A00060EF76E000EF86ED0EC00F01200C7
:06066200414443303A0060
:010668003061
:020000040030CA
:0E000000000C1F1EFF8381FF0FC00FE00F409A
:00000001FF
